{
  "_format": "hh-sol-artifact-1",
  "contractName": "TeamFactory",
  "sourceName": "contracts/TeamManager.sol",
  "abi": [
    {
      "inputs": [
        {
          "internalType": "address",
          "name": "_token",
          "type": "address"
        }
      ],
      "stateMutability": "nonpayable",
      "type": "constructor"
    },
    {
      "inputs": [],
      "name": "createTeam",
      "outputs": [],
      "stateMutability": "nonpayable",
      "type": "function"
    },
    {
      "inputs": [
        {
          "internalType": "uint256",
          "name": "",
          "type": "uint256"
        }
      ],
      "name": "deployedTeams",
      "outputs": [
        {
          "internalType": "address",
          "name": "",
          "type": "address"
        }
      ],
      "stateMutability": "view",
      "type": "function"
    },
    {
      "inputs": [],
      "name": "getTeams",
      "outputs": [
        {
          "internalType": "address[]",
          "name": "",
          "type": "address[]"
        }
      ],
      "stateMutability": "view",
      "type": "function"
    },
    {
      "inputs": [],
      "name": "tokenAddress",
      "outputs": [
        {
          "internalType": "address",
          "name": "",
          "type": "address"
        }
      ],
      "stateMutability": "view",
      "type": "function"
    }
  ],
  "bytecode": "0x608060405234801561001057600080fd5b50604051612c27380380612c27833981810160405281019061003291906100db565b806000806101000a81548173ffffffffffffffffffffffffffffffffffffffff021916908373ffffffffffffffffffffffffffffffffffffffff16021790555050610108565b600080fd5b600073ffffffffffffffffffffffffffffffffffffffff82169050919050565b60006100a88261007d565b9050919050565b6100b88161009d565b81146100c357600080fd5b50565b6000815190506100d5816100af565b92915050565b6000602082840312156100f1576100f0610078565b5b60006100ff848285016100c6565b91505092915050565b612b10806101176000396000f3fe608060405234801561001057600080fd5b506004361061004c5760003560e01c8063802cf8d8146100515780638a59d847146100815780639d76ea581461008b578063f4ec521e146100a9575b600080fd5b61006b60048036038101906100669190610370565b6100c7565b60405161007891906103de565b60405180910390f35b610089610106565b005b610093610276565b6040516100a091906103de565b60405180910390f35b6100b161029a565b6040516100be91906104b7565b60405180910390f35b600181815481106100d757600080fd5b906000526020600020016000915054906101000a900473ffffffffffffffffffffffffffffffffffffffff1681565b60008060009054906101000a900473ffffffffffffffffffffffffffffffffffffffff163360405161013790610328565b6101429291906104d9565b604051809103906000f08015801561015e573d6000803e3d6000fd5b5090506001819080600181540180825580915050600190039060005260206000200160009091909190916101000a81548173ffffffffffffffffffffffffffffffffffffffff021916908373ffffffffffffffffffffffffffffffffffffffff160217905550600069152d02c7e14af6800000905060008054906101000a900473ffffffffffffffffffffffffffffffffffffffff1673ffffffffffffffffffffffffffffffffffffffff1663a9059cbb83836040518363ffffffff1660e01b815260040161022e929190610511565b6020604051808303816000875af115801561024d573d6000803e3d6000fd5b505050506040513d601f19601f820116820180604052508101906102719190610572565b505050565b60008054906101000a900473ffffffffffffffffffffffffffffffffffffffff1681565b6060600180548060200260200160405190810160405280929190818152602001828054801561031e57602002820191906000526020600020905b8160009054906101000a900473ffffffffffffffffffffffffffffffffffffffff1673ffffffffffffffffffffffffffffffffffffffff16815260200190600101908083116102d4575b5050505050905090565b61253b806105a083390190565b600080fd5b6000819050919050565b61034d8161033a565b811461035857600080fd5b50565b60008135905061036a81610344565b92915050565b60006020828403121561038657610385610335565b5b60006103948482850161035b565b91505092915050565b600073ffffffffffffffffffffffffffffffffffffffff82169050919050565b60006103c88261039d565b9050919050565b6103d8816103bd565b82525050565b60006020820190506103f360008301846103cf565b92915050565b600081519050919050565b600082825260208201905092915050565b6000819050602082019050919050565b61042e816103bd565b82525050565b60006104408383610425565b60208301905092915050565b6000602082019050919050565b6000610464826103f9565b61046e8185610404565b935061047983610415565b8060005b838110156104aa5781516104918882610434565b975061049c8361044c565b92505060018101905061047d565b5085935050505092915050565b600060208201905081810360008301526104d18184610459565b905092915050565b60006040820190506104ee60008301856103cf565b6104fb60208301846103cf565b9392505050565b61050b8161033a565b82525050565b600060408201905061052660008301856103cf565b6105336020830184610502565b9392505050565b60008115159050919050565b61054f8161053a565b811461055a57600080fd5b50565b60008151905061056c81610546565b92915050565b60006020828403121561058857610587610335565b5b60006105968482850161055d565b9150509291505056fe608060405264174876e8006005553480156200001a57600080fd5b506040516200253b3803806200253b833981810160405281019062000040919062000133565b806000806101000a81548173ffffffffffffffffffffffffffffffffffffffff021916908373ffffffffffffffffffffffffffffffffffffffff16021790555081600160006101000a81548173ffffffffffffffffffffffffffffffffffffffff021916908373ffffffffffffffffffffffffffffffffffffffff16021790555050506200017a565b600080fd5b600073ffffffffffffffffffffffffffffffffffffffff82169050919050565b6000620000fb82620000ce565b9050919050565b6200010d81620000ee565b81146200011957600080fd5b50565b6000815190506200012d8162000102565b92915050565b600080604083850312156200014d576200014c620000c9565b5b60006200015d858286016200011c565b925050602062000170858286016200011c565b9150509250929050565b6123b1806200018a6000396000f3fe6080604052600436106100e85760003560e01c806381d12c581161008a578063f851a44011610059578063f851a440146102d7578063fb1a002a14610302578063fb640db81461032d578063fc0c546a14610359576100e8565b806381d12c5814610205578063937e09b114610246578063bff1378514610271578063d7d1bbdb146102ae576100e8565b80633410452a116100c65780633410452a1461016a57806340208aa014610195578063575bab931461019f57806371942a01146101c8576100e8565b806303441006146100ed5780632407915814610116578063325010df14610141575b600080fd5b3480156100f957600080fd5b50610114600480360381019061010f91906113a0565b610384565b005b34801561012257600080fd5b5061012b610841565b60405161013891906113dc565b60405180910390f35b34801561014d57600080fd5b506101686004803603810190610163919061159b565b610847565b005b34801561017657600080fd5b5061017f610a08565b60405161018c91906113dc565b60405180910390f35b61019d610a15565b005b3480156101ab57600080fd5b506101c660048036038101906101c191906113a0565b610b59565b005b3480156101d457600080fd5b506101ef60048036038101906101ea91906115f7565b610cf8565b6040516101fc919061163f565b60405180910390f35b34801561021157600080fd5b5061022c600480360381019061022791906113a0565b610d4e565b60405161023d9594939291906116e8565b60405180910390f35b34801561025257600080fd5b5061025b610e56565b60405161026891906113dc565b60405180910390f35b34801561027d57600080fd5b50610298600480360381019061029391906115f7565b610e5c565b6040516102a5919061163f565b60405180910390f35b3480156102ba57600080fd5b506102d560048036038101906102d091906113a0565b610e7c565b005b3480156102e357600080fd5b506102ec611035565b6040516102f99190611742565b60405180910390f35b34801561030e57600080fd5b50610317611059565b604051610324919061190c565b60405180910390f35b34801561033957600080fd5b5061034261123f565b60405161035092919061192e565b60405180910390f35b34801561036557600080fd5b5061036e6112e7565b60405161037b91906119b6565b60405180910390f35b60008054906101000a900473ffffffffffffffffffffffffffffffffffffffff1673ffffffffffffffffffffffffffffffffffffffff163373ffffffffffffffffffffffffffffffffffffffff1614610412576040517f08c379a000000000000000000000000000000000000000000000000000000000815260040161040990611a43565b60405180910390fd5b60006004828154811061042857610427611a63565b5b9060005260206000209060050201905060008160010160009054906101000a900473ffffffffffffffffffffffffffffffffffffffff1690508160010160149054906101000a900460ff16156104b3576040517f08c379a00000000000000000000000000000000000000000000000000000000081526004016104aa90611ade565b60405180910390fd5b8160030160009054906101000a900460ff16610504576040517f08c379a00000000000000000000000000000000000000000000000000000000081526004016104fb90611b4a565b60405180910390fd5b60026003546105139190611bc8565b826002015411610558576040517f08c379a000000000000000000000000000000000000000000000000000000000815260040161054f90611c45565b60405180910390fd5b60008173ffffffffffffffffffffffffffffffffffffffff16638da5cb5b6040518163ffffffff1660e01b8152600401602060405180830381865afa1580156105a5573d6000803e3d6000fd5b505050506040513d601f19601f820116820180604052508101906105c99190611c7a565b905060008273ffffffffffffffffffffffffffffffffffffffff1663d9a273496040518163ffffffff1660e01b8152600401602060405180830381865afa158015610618573d6000803e3d6000fd5b505050506040513d601f19601f8201168201806040525081019061063c9190611cbc565b905080600160009054906101000a900473ffffffffffffffffffffffffffffffffffffffff1673ffffffffffffffffffffffffffffffffffffffff166370a08231306040518263ffffffff1660e01b815260040161069a9190611742565b602060405180830381865afa1580156106b7573d6000803e3d6000fd5b505050506040513d601f19601f820116820180604052508101906106db9190611cbc565b101561071c576040517f08c379a000000000000000000000000000000000000000000000000000000000815260040161071390611d35565b60405180910390fd5b600160009054906101000a900473ffffffffffffffffffffffffffffffffffffffff1673ffffffffffffffffffffffffffffffffffffffff1663a9059cbb83836040518363ffffffff1660e01b8152600401610779929190611d55565b6020604051808303816000875af1158015610798573d6000803e3d6000fd5b505050506040513d601f19601f820116820180604052508101906107bc9190611daa565b508273ffffffffffffffffffffffffffffffffffffffff16635190fcf86040518163ffffffff1660e01b8152600401600060405180830381600087803b15801561080557600080fd5b505af1158015610819573d6000803e3d6000fd5b5050505060018460010160146101000a81548160ff0219169083151502179055505050505050565b60035481565b60008054906101000a900473ffffffffffffffffffffffffffffffffffffffff1673ffffffffffffffffffffffffffffffffffffffff163373ffffffffffffffffffffffffffffffffffffffff16146108d5576040517f08c379a00000000000000000000000000000000000000000000000000000000081526004016108cc90611a43565b60405180910390fd5b60008190508073ffffffffffffffffffffffffffffffffffffffff1663232a6b9d6040518163ffffffff1660e01b8152600401602060405180830381865afa158015610925573d6000803e3d6000fd5b505050506040513d601f19601f820116820180604052508101906109499190611daa565b15610989576040517f08c379a000000000000000000000000000000000000000000000000000000000815260040161098090611e23565b60405180910390fd5b600060046001816001815401808255809150500390600052602060002090600502019050838160000190816109be9190612045565b50828160010160006101000a81548173ffffffffffffffffffffffffffffffffffffffff021916908373ffffffffffffffffffffffffffffffffffffffff16021790555050505050565b6000600480549050905090565b600554341015610a5a576040517f08c379a0000000000000000000000000000000000000000000000000000000008152600401610a5190612163565b60405180910390fd5b600260003373ffffffffffffffffffffffffffffffffffffffff1673ffffffffffffffffffffffffffffffffffffffff16815260200190815260200160002060009054906101000a900460ff1615610ae7576040517f08c379a0000000000000000000000000000000000000000000000000000000008152600401610ade906121cf565b60405180910390fd5b6001600260003373ffffffffffffffffffffffffffffffffffffffff1673ffffffffffffffffffffffffffffffffffffffff16815260200190815260200160002060006101000a81548160ff02191690831515021790555060036000815480929190610b52906121ef565b9190505550565b600060048281548110610b6f57610b6e611a63565b5b9060005260206000209060050201905060008160010160009054906101000a900473ffffffffffffffffffffffffffffffffffffffff1690508073ffffffffffffffffffffffffffffffffffffffff16638da5cb5b6040518163ffffffff1660e01b8152600401602060405180830381865afa158015610bf3573d6000803e3d6000fd5b505050506040513d601f19601f82011682018060405250810190610c179190611c7a565b73ffffffffffffffffffffffffffffffffffffffff163373ffffffffffffffffffffffffffffffffffffffff1614610c84576040517f08c379a0000000000000000000000000000000000000000000000000000000008152600401610c7b90612283565b60405180910390fd5b8160030160009054906101000a900460ff1615610cd6576040517f08c379a0000000000000000000000000000000000000000000000000000000008152600401610ccd906122ef565b60405180910390fd5b60018260030160006101000a81548160ff021916908315150217905550505050565b6000600260008373ffffffffffffffffffffffffffffffffffffffff1673ffffffffffffffffffffffffffffffffffffffff16815260200190815260200160002060009054906101000a900460ff169050919050565b60048181548110610d5e57600080fd5b9060005260206000209060050201600091509050806000018054610d8190611e72565b80601f0160208091040260200160405190810160405280929190818152602001828054610dad90611e72565b8015610dfa5780601f10610dcf57610100808354040283529160200191610dfa565b820191906000526020600020905b815481529060010190602001808311610ddd57829003601f168201915b5050505050908060010160009054906101000a900473ffffffffffffffffffffffffffffffffffffffff16908060010160149054906101000a900460ff16908060020154908060030160009054906101000a900460ff16905085565b60055481565b60026020528060005260406000206000915054906101000a900460ff1681565b600060048281548110610e9257610e91611a63565b5b90600052602060002090600502019050600260003373ffffffffffffffffffffffffffffffffffffffff1673ffffffffffffffffffffffffffffffffffffffff16815260200190815260200160002060009054906101000a900460ff16610f2e576040517f08c379a0000000000000000000000000000000000000000000000000000000008152600401610f259061235b565b60405180910390fd5b8060040160003373ffffffffffffffffffffffffffffffffffffffff1673ffffffffffffffffffffffffffffffffffffffff16815260200190815260200160002060009054906101000a900460ff1615610fbd576040517f08c379a0000000000000000000000000000000000000000000000000000000008152600401610fb4906122ef565b60405180910390fd5b60018160040160003373ffffffffffffffffffffffffffffffffffffffff1673ffffffffffffffffffffffffffffffffffffffff16815260200190815260200160002060006101000a81548160ff02191690831515021790555080600201600081548092919061102c906121ef565b91905055505050565b60008054906101000a900473ffffffffffffffffffffffffffffffffffffffff1681565b6060600060048054905067ffffffffffffffff81111561107c5761107b611412565b5b6040519080825280602002602001820160405280156110b557816020015b6110a261130d565b81526020019060019003908161109a5790505b50905060005b600480549050811015611237576000600482815481106110de576110dd611a63565b5b906000526020600020906005020190506040518060a0016040528082600001805461110890611e72565b80601f016020809104026020016040519081016040528092919081815260200182805461113490611e72565b80156111815780601f1061115657610100808354040283529160200191611181565b820191906000526020600020905b81548152906001019060200180831161116457829003601f168201915b505050505081526020018260010160009054906101000a900473ffffffffffffffffffffffffffffffffffffffff1673ffffffffffffffffffffffffffffffffffffffff1681526020018260010160149054906101000a900460ff1615158152602001826002015481526020018260030160009054906101000a900460ff16151581525083838151811061121857611217611a63565b5b602002602001018190525050808061122f906121ef565b9150506110bb565b508091505090565b600080479150600160009054906101000a900473ffffffffffffffffffffffffffffffffffffffff1673ffffffffffffffffffffffffffffffffffffffff166370a08231306040518263ffffffff1660e01b81526004016112a09190611742565b602060405180830381865afa1580156112bd573d6000803e3d6000fd5b505050506040513d601f19601f820116820180604052508101906112e19190611cbc565b90509091565b600160009054906101000a900473ffffffffffffffffffffffffffffffffffffffff1681565b6040518060a0016040528060608152602001600073ffffffffffffffffffffffffffffffffffffffff168152602001600015158152602001600081526020016000151581525090565b6000604051905090565b600080fd5b600080fd5b6000819050919050565b61137d8161136a565b811461138857600080fd5b50565b60008135905061139a81611374565b92915050565b6000602082840312156113b6576113b5611360565b5b60006113c48482850161138b565b91505092915050565b6113d68161136a565b82525050565b60006020820190506113f160008301846113cd565b92915050565b600080fd5b600080fd5b6000601f19601f8301169050919050565b7f4e487b7100000000000000000000000000000000000000000000000000000000600052604160045260246000fd5b61144a82611401565b810181811067ffffffffffffffff8211171561146957611468611412565b5b80604052505050565b600061147c611356565b90506114888282611441565b919050565b600067ffffffffffffffff8211156114a8576114a7611412565b5b6114b182611401565b9050602081019050919050565b82818337600083830152505050565b60006114e06114db8461148d565b611472565b9050828152602081018484840111156114fc576114fb6113fc565b5b6115078482856114be565b509392505050565b600082601f830112611524576115236113f7565b5b81356115348482602086016114cd565b91505092915050565b600073ffffffffffffffffffffffffffffffffffffffff82169050919050565b60006115688261153d565b9050919050565b6115788161155d565b811461158357600080fd5b50565b6000813590506115958161156f565b92915050565b600080604083850312156115b2576115b1611360565b5b600083013567ffffffffffffffff8111156115d0576115cf611365565b5b6115dc8582860161150f565b92505060206115ed85828601611586565b9150509250929050565b60006020828403121561160d5761160c611360565b5b600061161b84828501611586565b91505092915050565b60008115159050919050565b61163981611624565b82525050565b60006020820190506116546000830184611630565b92915050565b600081519050919050565b600082825260208201905092915050565b60005b83811015611694578082015181840152602081019050611679565b60008484015250505050565b60006116ab8261165a565b6116b58185611665565b93506116c5818560208601611676565b6116ce81611401565b840191505092915050565b6116e28161155d565b82525050565b600060a082019050818103600083015261170281886116a0565b905061171160208301876116d9565b61171e6040830186611630565b61172b60608301856113cd565b6117386080830184611630565b9695505050505050565b600060208201905061175760008301846116d9565b92915050565b600081519050919050565b600082825260208201905092915050565b6000819050602082019050919050565b600082825260208201905092915050565b60006117a58261165a565b6117af8185611789565b93506117bf818560208601611676565b6117c881611401565b840191505092915050565b6117dc8161155d565b82525050565b6117eb81611624565b82525050565b6117fa8161136a565b82525050565b600060a083016000830151848203600086015261181d828261179a565b915050602083015161183260208601826117d3565b50604083015161184560408601826117e2565b50606083015161185860608601826117f1565b50608083015161186b60808601826117e2565b508091505092915050565b60006118828383611800565b905092915050565b6000602082019050919050565b60006118a28261175d565b6118ac8185611768565b9350836020820285016118be85611779565b8060005b858110156118fa57848403895281516118db8582611876565b94506118e68361188a565b925060208a019950506001810190506118c2565b50829750879550505050505092915050565b600060208201905081810360008301526119268184611897565b905092915050565b600060408201905061194360008301856113cd565b61195060208301846113cd565b9392505050565b6000819050919050565b600061197c6119776119728461153d565b611957565b61153d565b9050919050565b600061198e82611961565b9050919050565b60006119a082611983565b9050919050565b6119b081611995565b82525050565b60006020820190506119cb60008301846119a7565b92915050565b7f4f6e6c792061646d696e2063616e20706572666f726d2074686973206163746960008201527f6f6e000000000000000000000000000000000000000000000000000000000000602082015250565b6000611a2d602283611665565b9150611a38826119d1565b604082019050919050565b60006020820190508181036000830152611a5c81611a20565b9050919050565b7f4e487b7100000000000000000000000000000000000000000000000000000000600052603260045260246000fd5b7f416c72656164792066696e616c697a6564000000000000000000000000000000600082015250565b6000611ac8601183611665565b9150611ad382611a92565b602082019050919050565b60006020820190508181036000830152611af781611abb565b9050919050565b7f506c6179657220646964206e6f7420617070726f766500000000000000000000600082015250565b6000611b34601683611665565b9150611b3f82611afe565b602082019050919050565b60006020820190508181036000830152611b6381611b27565b9050919050565b7f4e487b7100000000000000000000000000000000000000000000000000000000600052601260045260246000fd5b7f4e487b7100000000000000000000000000000000000000000000000000000000600052601160045260246000fd5b6000611bd38261136a565b9150611bde8361136a565b925082611bee57611bed611b6a565b5b828204905092915050565b7f4e6f7420656e6f75676820626f61726420617070726f76616c73000000000000600082015250565b6000611c2f601a83611665565b9150611c3a82611bf9565b602082019050919050565b60006020820190508181036000830152611c5e81611c22565b9050919050565b600081519050611c748161156f565b92915050565b600060208284031215611c9057611c8f611360565b5b6000611c9e84828501611c65565b91505092915050565b600081519050611cb681611374565b92915050565b600060208284031215611cd257611cd1611360565b5b6000611ce084828501611ca7565b91505092915050565b7f4e6f7420656e6f75676820746f6b656e73000000000000000000000000000000600082015250565b6000611d1f601183611665565b9150611d2a82611ce9565b602082019050919050565b60006020820190508181036000830152611d4e81611d12565b9050919050565b6000604082019050611d6a60008301856116d9565b611d7760208301846113cd565b9392505050565b611d8781611624565b8114611d9257600080fd5b50565b600081519050611da481611d7e565b92915050565b600060208284031215611dc057611dbf611360565b5b6000611dce84828501611d95565b91505092915050565b7f506c6179657220616c7265616479207369676e65640000000000000000000000600082015250565b6000611e0d601583611665565b9150611e1882611dd7565b602082019050919050565b60006020820190508181036000830152611e3c81611e00565b9050919050565b7f4e487b7100000000000000000000000000000000000000000000000000000000600052602260045260246000fd5b60006002820490506001821680611e8a57607f821691505b602082108103611e9d57611e9c611e43565b5b50919050565b60008190508160005260206000209050919050565b60006020601f8301049050919050565b600082821b905092915050565b600060088302611f057fffffffffffffffffffffffffffffffffffffffffffffffffffffffffffffffff82611ec8565b611f0f8683611ec8565b95508019841693508086168417925050509392505050565b6000611f42611f3d611f388461136a565b611957565b61136a565b9050919050565b6000819050919050565b611f5c83611f27565b611f70611f6882611f49565b848454611ed5565b825550505050565b600090565b611f85611f78565b611f90818484611f53565b505050565b5b81811015611fb457611fa9600082611f7d565b600181019050611f96565b5050565b601f821115611ff957611fca81611ea3565b611fd384611eb8565b81016020851015611fe2578190505b611ff6611fee85611eb8565b830182611f95565b50505b505050565b600082821c905092915050565b600061201c60001984600802611ffe565b1980831691505092915050565b6000612035838361200b565b9150826002028217905092915050565b61204e8261165a565b67ffffffffffffffff81111561206757612066611412565b5b6120718254611e72565b61207c828285611fb8565b600060209050601f8311600181146120af576000841561209d578287015190505b6120a78582612029565b86555061210f565b601f1984166120bd86611ea3565b60005b828110156120e5578489015182556001820191506020850194506020810190506120c0565b8683101561210257848901516120fe601f89168261200b565b8355505b6001600288020188555050505b505050505050565b7f4d696e696d756d20302e30303030303031204554482072657175697265640000600082015250565b600061214d601e83611665565b915061215882612117565b602082019050919050565b6000602082019050818103600083015261217c81612140565b9050919050565b7f416c7265616479206f6e20626f61726400000000000000000000000000000000600082015250565b60006121b9601083611665565b91506121c482612183565b602082019050919050565b600060208201905081810360008301526121e8816121ac565b9050919050565b60006121fa8261136a565b91507fffffffffffffffffffffffffffffffffffffffffffffffffffffffffffffffff820361222c5761222b611b99565b5b600182019050919050565b7f4f6e6c792074686520706c617965722063616e20617070726f76650000000000600082015250565b600061226d601b83611665565b915061227882612237565b602082019050919050565b6000602082019050818103600083015261229c81612260565b9050919050565b7f416c726561647920617070726f76656400000000000000000000000000000000600082015250565b60006122d9601083611665565b91506122e4826122a3565b602082019050919050565b60006020820190508181036000830152612308816122cc565b9050919050565b7f4e6f74206120626f617264206d656d6265720000000000000000000000000000600082015250565b6000612345601283611665565b91506123508261230f565b602082019050919050565b6000602082019050818103600083015261237481612338565b905091905056fea264697066735822122006546d4a12ce1c2c66894f3cfca33be28ff2dc8d77c9b765d39bc16a3a1b631b64736f6c63430008140033a26469706673582212208e08dab063463d7673712c002564aa482d6ba9ebdf5a67aa28a8c02f0fc05f3164736f6c63430008140033",
  "linkReferences": {},
  "deployedLinkReferences": {}
}