{
  "_format": "hh-sol-artifact-1",
  "contractName": "PlayerNFTFactory",
  "sourceName": "contracts/PlayerNFT.sol",
  "abi": [
    {
      "anonymous": false,
      "inputs": [
        {
          "indexed": false,
          "internalType": "address",
          "name": "playerNFTAddress",
          "type": "address"
        }
      ],
      "name": "PlayerCreated",
      "type": "event"
    },
    {
      "inputs": [
        {
          "internalType": "string",
          "name": "nftName",
          "type": "string"
        },
        {
          "internalType": "string",
          "name": "nftSymbol",
          "type": "string"
        },
        {
          "internalType": "string",
          "name": "name",
          "type": "string"
        },
        {
          "internalType": "uint256",
          "name": "age",
          "type": "uint256"
        },
        {
          "internalType": "uint256",
          "name": "height",
          "type": "uint256"
        },
        {
          "internalType": "uint256",
          "name": "salaryRequest",
          "type": "uint256"
        },
        {
          "internalType": "string",
          "name": "imageURI",
          "type": "string"
        },
        {
          "internalType": "string",
          "name": "highlightUrl",
          "type": "string"
        }
      ],
      "name": "createPlayerNFT",
      "outputs": [],
      "stateMutability": "nonpayable",
      "type": "function"
    },
    {
      "inputs": [
        {
          "internalType": "uint256",
          "name": "",
          "type": "uint256"
        }
      ],
      "name": "deployedNFTs",
      "outputs": [
        {
          "internalType": "address",
          "name": "",
          "type": "address"
        }
      ],
      "stateMutability": "view",
      "type": "function"
    },
    {
      "inputs": [],
      "name": "getAllNFTs",
      "outputs": [
        {
          "internalType": "address[]",
          "name": "",
          "type": "address[]"
        }
      ],
      "stateMutability": "view",
      "type": "function"
    }
  ],
  "bytecode": "0x608060405234801561001057600080fd5b50613b29806100206000396000f3fe60806040523480156200001157600080fd5b5060043610620000465760003560e01c806313df8223146200004b5780633344363c1462000081578063e0391b0914620000a1575b600080fd5b620000696004803603810190620000639190620002e4565b620000c3565b6040516200007891906200035b565b60405180910390f35b6200009f6004803603810190620000999190620004da565b62000103565b005b620000ab620001f7565b604051620000ba91906200070c565b60405180910390f35b60008181548110620000d457600080fd5b906000526020600020016000915054906101000a900473ffffffffffffffffffffffffffffffffffffffff1681565b60008888888888888888336040516200011c9062000287565b6200013099989796959493929190620007ca565b604051809103906000f0801580156200014d573d6000803e3d6000fd5b5090506000819080600181540180825580915050600190039060005260206000200160009091909190916101000a81548173ffffffffffffffffffffffffffffffffffffffff021916908373ffffffffffffffffffffffffffffffffffffffff1602179055507fb4cca19a27ce42915c3cee0cee28fc5d90969ee49f09ec71659546a63b5f7bc081604051620001e491906200035b565b60405180910390a1505050505050505050565b606060008054806020026020016040519081016040528092919081815260200182805480156200027d57602002820191906000526020600020905b8160009054906101000a900473ffffffffffffffffffffffffffffffffffffffff1673ffffffffffffffffffffffffffffffffffffffff168152602001906001019080831162000232575b5050505050905090565b613267806200088d83390190565b6000604051905090565b600080fd5b600080fd5b6000819050919050565b620002be81620002a9565b8114620002ca57600080fd5b50565b600081359050620002de81620002b3565b92915050565b600060208284031215620002fd57620002fc6200029f565b5b60006200030d84828501620002cd565b91505092915050565b600073ffffffffffffffffffffffffffffffffffffffff82169050919050565b6000620003438262000316565b9050919050565b620003558162000336565b82525050565b60006020820190506200037260008301846200034a565b92915050565b600080fd5b600080fd5b6000601f19601f8301169050919050565b7f4e487b7100000000000000000000000000000000000000000000000000000000600052604160045260246000fd5b620003cd8262000382565b810181811067ffffffffffffffff82111715620003ef57620003ee62000393565b5b80604052505050565b60006200040462000295565b9050620004128282620003c2565b919050565b600067ffffffffffffffff82111562000435576200043462000393565b5b620004408262000382565b9050602081019050919050565b82818337600083830152505050565b6000620004736200046d8462000417565b620003f8565b9050828152602081018484840111156200049257620004916200037d565b5b6200049f8482856200044d565b509392505050565b600082601f830112620004bf57620004be62000378565b5b8135620004d18482602086016200045c565b91505092915050565b600080600080600080600080610100898b031215620004fe57620004fd6200029f565b5b600089013567ffffffffffffffff8111156200051f576200051e620002a4565b5b6200052d8b828c01620004a7565b985050602089013567ffffffffffffffff811115620005515762000550620002a4565b5b6200055f8b828c01620004a7565b975050604089013567ffffffffffffffff811115620005835762000582620002a4565b5b620005918b828c01620004a7565b9650506060620005a48b828c01620002cd565b9550506080620005b78b828c01620002cd565b94505060a0620005ca8b828c01620002cd565b93505060c089013567ffffffffffffffff811115620005ee57620005ed620002a4565b5b620005fc8b828c01620004a7565b92505060e089013567ffffffffffffffff81111562000620576200061f620002a4565b5b6200062e8b828c01620004a7565b9150509295985092959890939650565b600081519050919050565b600082825260208201905092915050565b6000819050602082019050919050565b620006758162000336565b82525050565b60006200068983836200066a565b60208301905092915050565b6000602082019050919050565b6000620006af826200063e565b620006bb818562000649565b9350620006c8836200065a565b8060005b83811015620006ff578151620006e388826200067b565b9750620006f08362000695565b925050600181019050620006cc565b5085935050505092915050565b60006020820190508181036000830152620007288184620006a2565b905092915050565b600081519050919050565b600082825260208201905092915050565b60005b838110156200076c5780820151818401526020810190506200074f565b60008484015250505050565b6000620007858262000730565b6200079181856200073b565b9350620007a38185602086016200074c565b620007ae8162000382565b840191505092915050565b620007c481620002a9565b82525050565b6000610120820190508181036000830152620007e7818c62000778565b90508181036020830152620007fd818b62000778565b9050818103604083015262000813818a62000778565b9050620008246060830189620007b9565b620008336080830188620007b9565b6200084260a0830187620007b9565b81810360c083015262000856818662000778565b905081810360e08301526200086c818562000778565b90506200087e6101008301846200034a565b9a995050505050505050505056fe60806040523480156200001157600080fd5b506040516200326738038062003267833981810160405281019062000037919062000bbb565b888881600090816200004a919062000f76565b5080600190816200005c919062000f76565b505050866007908162000070919062000f76565b50856008819055508460098190555083600a8190555082600b908162000097919062000f76565b5081600c9081620000a9919062000f76565b5080600d60006101000a81548173ffffffffffffffffffffffffffffffffffffffff021916908373ffffffffffffffffffffffffffffffffffffffff1602179055506000600d60146101000a81548160ff021916908315150217905550620001198160016200012860201b60201c565b505050505050505050620010e6565b600073ffffffffffffffffffffffffffffffffffffffff168273ffffffffffffffffffffffffffffffffffffffff16036200019d5760006040517f64a0ae920000000000000000000000000000000000000000000000000000000081526004016200019491906200106e565b60405180910390fd5b6000620001b3838360006200022f60201b60201c565b9050600073ffffffffffffffffffffffffffffffffffffffff168173ffffffffffffffffffffffffffffffffffffffff16146200022a5760006040517f73c6ac6e0000000000000000000000000000000000000000000000000000000081526004016200022191906200106e565b60405180910390fd5b505050565b60008062000243846200046460201b60201c565b9050600073ffffffffffffffffffffffffffffffffffffffff168373ffffffffffffffffffffffffffffffffffffffff16146200028e576200028d818486620004a160201b60201c565b5b600073ffffffffffffffffffffffffffffffffffffffff168173ffffffffffffffffffffffffffffffffffffffff16146200032857620002d96000856000806200057360201b60201c565b6001600360008373ffffffffffffffffffffffffffffffffffffffff1673ffffffffffffffffffffffffffffffffffffffff168152602001908152602001600020600082825403925050819055505b600073ffffffffffffffffffffffffffffffffffffffff168573ffffffffffffffffffffffffffffffffffffffff1614620003ac576001600360008773ffffffffffffffffffffffffffffffffffffffff1673ffffffffffffffffffffffffffffffffffffffff168152602001908152602001600020600082825401925050819055505b846002600086815260200190815260200160002060006101000a81548173ffffffffffffffffffffffffffffffffffffffff021916908373ffffffffffffffffffffffffffffffffffffffff160217905550838573ffffffffffffffffffffffffffffffffffffffff168273ffffffffffffffffffffffffffffffffffffffff167fddf252ad1be2c89b69c2b068fc378daa952ba7f163c4a11628f55a4df523b3ef60405160405180910390a4809150509392505050565b60006002600083815260200190815260200160002060009054906101000a900473ffffffffffffffffffffffffffffffffffffffff169050919050565b620004b48383836200075060201b60201c565b6200056e57600073ffffffffffffffffffffffffffffffffffffffff168373ffffffffffffffffffffffffffffffffffffffff16036200052d57806040517f7e2732890000000000000000000000000000000000000000000000000000000081526004016200052491906200109c565b60405180910390fd5b81816040517f177e802f00000000000000000000000000000000000000000000000000000000815260040162000565929190620010b9565b60405180910390fd5b505050565b8080620005ad5750600073ffffffffffffffffffffffffffffffffffffffff168273ffffffffffffffffffffffffffffffffffffffff1614155b15620006f8576000620005c6846200082460201b60201c565b9050600073ffffffffffffffffffffffffffffffffffffffff168373ffffffffffffffffffffffffffffffffffffffff16141580156200063257508273ffffffffffffffffffffffffffffffffffffffff168173ffffffffffffffffffffffffffffffffffffffff1614155b80156200064e57506200064c8184620008b760201b60201c565b155b156200069357826040517fa9fbf51f0000000000000000000000000000000000000000000000000000000081526004016200068a91906200106e565b60405180910390fd5b8115620006f657838573ffffffffffffffffffffffffffffffffffffffff168273ffffffffffffffffffffffffffffffffffffffff167f8c5be1e5ebec7d5bd14f71427d1e84f3dd0314c0f7b2291e5b200ac8c7c3b92560405160405180910390a45b505b836004600085815260200190815260200160002060006101000a81548173ffffffffffffffffffffffffffffffffffffffff021916908373ffffffffffffffffffffffffffffffffffffffff16021790555050505050565b60008073ffffffffffffffffffffffffffffffffffffffff168373ffffffffffffffffffffffffffffffffffffffff16141580156200081b57508273ffffffffffffffffffffffffffffffffffffffff168473ffffffffffffffffffffffffffffffffffffffff161480620007d35750620007d28484620008b760201b60201c565b5b806200081a57508273ffffffffffffffffffffffffffffffffffffffff1662000802836200094b60201b60201c565b73ffffffffffffffffffffffffffffffffffffffff16145b5b90509392505050565b60008062000838836200046460201b60201c565b9050600073ffffffffffffffffffffffffffffffffffffffff168173ffffffffffffffffffffffffffffffffffffffff1603620008ae57826040517f7e273289000000000000000000000000000000000000000000000000000000008152600401620008a591906200109c565b60405180910390fd5b80915050919050565b6000600560008473ffffffffffffffffffffffffffffffffffffffff1673ffffffffffffffffffffffffffffffffffffffff16815260200190815260200160002060008373ffffffffffffffffffffffffffffffffffffffff1673ffffffffffffffffffffffffffffffffffffffff16815260200190815260200160002060009054906101000a900460ff16905092915050565b60006004600083815260200190815260200160002060009054906101000a900473ffffffffffffffffffffffffffffffffffffffff169050919050565b6000604051905090565b600080fd5b600080fd5b600080fd5b600080fd5b6000601f19601f8301169050919050565b7f4e487b7100000000000000000000000000000000000000000000000000000000600052604160045260246000fd5b620009f182620009a6565b810181811067ffffffffffffffff8211171562000a135762000a12620009b7565b5b80604052505050565b600062000a2862000988565b905062000a368282620009e6565b919050565b600067ffffffffffffffff82111562000a595762000a58620009b7565b5b62000a6482620009a6565b9050602081019050919050565b60005b8381101562000a9157808201518184015260208101905062000a74565b60008484015250505050565b600062000ab462000aae8462000a3b565b62000a1c565b90508281526020810184848401111562000ad35762000ad2620009a1565b5b62000ae084828562000a71565b509392505050565b600082601f83011262000b005762000aff6200099c565b5b815162000b1284826020860162000a9d565b91505092915050565b6000819050919050565b62000b308162000b1b565b811462000b3c57600080fd5b50565b60008151905062000b508162000b25565b92915050565b600073ffffffffffffffffffffffffffffffffffffffff82169050919050565b600062000b838262000b56565b9050919050565b62000b958162000b76565b811462000ba157600080fd5b50565b60008151905062000bb58162000b8a565b92915050565b60008060008060008060008060006101208a8c03121562000be15762000be062000992565b5b60008a015167ffffffffffffffff81111562000c025762000c0162000997565b5b62000c108c828d0162000ae8565b99505060208a015167ffffffffffffffff81111562000c345762000c3362000997565b5b62000c428c828d0162000ae8565b98505060408a015167ffffffffffffffff81111562000c665762000c6562000997565b5b62000c748c828d0162000ae8565b975050606062000c878c828d0162000b3f565b965050608062000c9a8c828d0162000b3f565b95505060a062000cad8c828d0162000b3f565b94505060c08a015167ffffffffffffffff81111562000cd15762000cd062000997565b5b62000cdf8c828d0162000ae8565b93505060e08a015167ffffffffffffffff81111562000d035762000d0262000997565b5b62000d118c828d0162000ae8565b92505061010062000d258c828d0162000ba4565b9150509295985092959850929598565b600081519050919050565b7f4e487b7100000000000000000000000000000000000000000000000000000000600052602260045260246000fd5b6000600282049050600182168062000d8857607f821691505b60208210810362000d9e5762000d9d62000d40565b5b50919050565b60008190508160005260206000209050919050565b60006020601f8301049050919050565b600082821b905092915050565b60006008830262000e087fffffffffffffffffffffffffffffffffffffffffffffffffffffffffffffffff8262000dc9565b62000e14868362000dc9565b95508019841693508086168417925050509392505050565b6000819050919050565b600062000e5762000e5162000e4b8462000b1b565b62000e2c565b62000b1b565b9050919050565b6000819050919050565b62000e738362000e36565b62000e8b62000e828262000e5e565b84845462000dd6565b825550505050565b600090565b62000ea262000e93565b62000eaf81848462000e68565b505050565b5b8181101562000ed75762000ecb60008262000e98565b60018101905062000eb5565b5050565b601f82111562000f265762000ef08162000da4565b62000efb8462000db9565b8101602085101562000f0b578190505b62000f2362000f1a8562000db9565b83018262000eb4565b50505b505050565b600082821c905092915050565b600062000f4b6000198460080262000f2b565b1980831691505092915050565b600062000f66838362000f38565b9150826002028217905092915050565b62000f818262000d35565b67ffffffffffffffff81111562000f9d5762000f9c620009b7565b5b62000fa9825462000d6f565b62000fb682828562000edb565b600060209050601f83116001811462000fee576000841562000fd9578287015190505b62000fe5858262000f58565b86555062001055565b601f19841662000ffe8662000da4565b60005b82811015620010285784890151825560018201915060208501945060208101905062001001565b8683101562001048578489015162001044601f89168262000f38565b8355505b6001600288020188555050505b505050505050565b620010688162000b76565b82525050565b60006020820190506200108560008301846200105d565b92915050565b620010968162000b1b565b82525050565b6000602082019050620010b360008301846200108b565b92915050565b6000604082019050620010d060008301856200105d565b620010df60208301846200108b565b9392505050565b61217180620010f66000396000f3fe608060405234801561001057600080fd5b50600436106101425760003560e01c80635190fcf8116100b857806395d89b411161007c57806395d89b4114610355578063a22cb46514610373578063b88d4fde1461038f578063c87b56dd146103ab578063d9a27349146103db578063e985e9c5146103f957610142565b80635190fcf8146102af5780636352211e146102b957806370a08231146102e957806377508b4b146103195780638da5cb5b1461033757610142565b8063135d088d1161010a578063135d088d146101ff578063154d183b1461021d578063232a6b9d1461023b57806323b872dd14610259578063262a9dff1461027557806342842e0e1461029357610142565b806301ffc9a71461014757806306fdde0314610177578063081812fc14610195578063095ea7b3146101c55780630ef26743146101e1575b600080fd5b610161600480360381019061015c91906119bb565b610429565b60405161016e9190611a03565b60405180910390f35b61017f61048a565b60405161018c9190611aae565b60405180910390f35b6101af60048036038101906101aa9190611b06565b61051c565b6040516101bc9190611b74565b60405180910390f35b6101df60048036038101906101da9190611bbb565b610538565b005b6101e961054e565b6040516101f69190611c0a565b60405180910390f35b610207610554565b6040516102149190611aae565b60405180910390f35b6102256105e2565b6040516102329190611aae565b60405180910390f35b610243610670565b6040516102509190611a03565b60405180910390f35b610273600480360381019061026e9190611c25565b610683565b005b61027d610785565b60405161028a9190611c0a565b60405180910390f35b6102ad60048036038101906102a89190611c25565b61078b565b005b6102b76107ab565b005b6102d360048036038101906102ce9190611b06565b6107c8565b6040516102e09190611b74565b60405180910390f35b61030360048036038101906102fe9190611c78565b6107da565b6040516103109190611c0a565b60405180910390f35b610321610894565b60405161032e9190611aae565b60405180910390f35b61033f610922565b60405161034c9190611b74565b60405180910390f35b61035d610948565b60405161036a9190611aae565b60405180910390f35b61038d60048036038101906103889190611cd1565b6109da565b005b6103a960048036038101906103a49190611e46565b6109f0565b005b6103c560048036038101906103c09190611b06565b610a15565b6040516103d29190611aae565b60405180910390f35b6103e3610b28565b6040516103f09190611c0a565b60405180910390f35b610413600480360381019061040e9190611ec9565b610b2e565b6040516104209190611a03565b60405180910390f35b6000634906490660e01b7bffffffffffffffffffffffffffffffffffffffffffffffffffffffff1916827bffffffffffffffffffffffffffffffffffffffffffffffffffffffff19161480610483575061048282610bc2565b5b9050919050565b60606000805461049990611f38565b80601f01602080910402602001604051908101604052809291908181526020018280546104c590611f38565b80156105125780601f106104e757610100808354040283529160200191610512565b820191906000526020600020905b8154815290600101906020018083116104f557829003601f168201915b5050505050905090565b600061052782610ca4565b5061053182610d2c565b9050919050565b61054a8282610545610d69565b610d71565b5050565b60095481565b600b805461056190611f38565b80601f016020809104026020016040519081016040528092919081815260200182805461058d90611f38565b80156105da5780601f106105af576101008083540402835291602001916105da565b820191906000526020600020905b8154815290600101906020018083116105bd57829003601f168201915b505050505081565b600c80546105ef90611f38565b80601f016020809104026020016040519081016040528092919081815260200182805461061b90611f38565b80156106685780601f1061063d57610100808354040283529160200191610668565b820191906000526020600020905b81548152906001019060200180831161064b57829003601f168201915b505050505081565b600d60149054906101000a900460ff1681565b600073ffffffffffffffffffffffffffffffffffffffff168273ffffffffffffffffffffffffffffffffffffffff16036106f55760006040517f64a0ae920000000000000000000000000000000000000000000000000000000081526004016106ec9190611b74565b60405180910390fd5b60006107098383610704610d69565b610d83565b90508373ffffffffffffffffffffffffffffffffffffffff168173ffffffffffffffffffffffffffffffffffffffff161461077f578382826040517f64283d7b00000000000000000000000000000000000000000000000000000000815260040161077693929190611f69565b60405180910390fd5b50505050565b60085481565b6107a6838383604051806020016040528060008152506109f0565b505050565b6001600d60146101000a81548160ff021916908315150217905550565b60006107d382610ca4565b9050919050565b60008073ffffffffffffffffffffffffffffffffffffffff168273ffffffffffffffffffffffffffffffffffffffff160361084d5760006040517f89c62b640000000000000000000000000000000000000000000000000000000081526004016108449190611b74565b60405180910390fd5b600360008373ffffffffffffffffffffffffffffffffffffffff1673ffffffffffffffffffffffffffffffffffffffff168152602001908152602001600020549050919050565b600780546108a190611f38565b80601f01602080910402602001604051908101604052809291908181526020018280546108cd90611f38565b801561091a5780601f106108ef5761010080835404028352916020019161091a565b820191906000526020600020905b8154815290600101906020018083116108fd57829003601f168201915b505050505081565b600d60009054906101000a900473ffffffffffffffffffffffffffffffffffffffff1681565b60606001805461095790611f38565b80601f016020809104026020016040519081016040528092919081815260200182805461098390611f38565b80156109d05780601f106109a5576101008083540402835291602001916109d0565b820191906000526020600020905b8154815290600101906020018083116109b357829003601f168201915b5050505050905090565b6109ec6109e5610d69565b8383610f9d565b5050565b6109fb848484610683565b610a0f610a06610d69565b8585858561110c565b50505050565b6060610a2082610ca4565b506000600660008481526020019081526020016000208054610a4190611f38565b80601f0160208091040260200160405190810160405280929190818152602001828054610a6d90611f38565b8015610aba5780601f10610a8f57610100808354040283529160200191610aba565b820191906000526020600020905b815481529060010190602001808311610a9d57829003601f168201915b505050505090506000610acb6112bd565b90506000815103610ae0578192505050610b23565b600082511115610b15578082604051602001610afd929190611fdc565b60405160208183030381529060405292505050610b23565b610b1e846112d4565b925050505b919050565b600a5481565b6000600560008473ffffffffffffffffffffffffffffffffffffffff1673ffffffffffffffffffffffffffffffffffffffff16815260200190815260200160002060008373ffffffffffffffffffffffffffffffffffffffff1673ffffffffffffffffffffffffffffffffffffffff16815260200190815260200160002060009054906101000a900460ff16905092915050565b60007f80ac58cd000000000000000000000000000000000000000000000000000000007bffffffffffffffffffffffffffffffffffffffffffffffffffffffff1916827bffffffffffffffffffffffffffffffffffffffffffffffffffffffff19161480610c8d57507f5b5e139f000000000000000000000000000000000000000000000000000000007bffffffffffffffffffffffffffffffffffffffffffffffffffffffff1916827bffffffffffffffffffffffffffffffffffffffffffffffffffffffff1916145b80610c9d5750610c9c8261133d565b5b9050919050565b600080610cb0836113a7565b9050600073ffffffffffffffffffffffffffffffffffffffff168173ffffffffffffffffffffffffffffffffffffffff1603610d2357826040517f7e273289000000000000000000000000000000000000000000000000000000008152600401610d1a9190611c0a565b60405180910390fd5b80915050919050565b60006004600083815260200190815260200160002060009054906101000a900473ffffffffffffffffffffffffffffffffffffffff169050919050565b600033905090565b610d7e83838360016113e4565b505050565b600080610d8f846113a7565b9050600073ffffffffffffffffffffffffffffffffffffffff168373ffffffffffffffffffffffffffffffffffffffff1614610dd157610dd08184866115a9565b5b600073ffffffffffffffffffffffffffffffffffffffff168173ffffffffffffffffffffffffffffffffffffffff1614610e6257610e136000856000806113e4565b6001600360008373ffffffffffffffffffffffffffffffffffffffff1673ffffffffffffffffffffffffffffffffffffffff168152602001908152602001600020600082825403925050819055505b600073ffffffffffffffffffffffffffffffffffffffff168573ffffffffffffffffffffffffffffffffffffffff1614610ee5576001600360008773ffffffffffffffffffffffffffffffffffffffff1673ffffffffffffffffffffffffffffffffffffffff168152602001908152602001600020600082825401925050819055505b846002600086815260200190815260200160002060006101000a81548173ffffffffffffffffffffffffffffffffffffffff021916908373ffffffffffffffffffffffffffffffffffffffff160217905550838573ffffffffffffffffffffffffffffffffffffffff168273ffffffffffffffffffffffffffffffffffffffff167fddf252ad1be2c89b69c2b068fc378daa952ba7f163c4a11628f55a4df523b3ef60405160405180910390a4809150509392505050565b600073ffffffffffffffffffffffffffffffffffffffff168273ffffffffffffffffffffffffffffffffffffffff160361100e57816040517f5b08ba180000000000000000000000000000000000000000000000000000000081526004016110059190611b74565b60405180910390fd5b80600560008573ffffffffffffffffffffffffffffffffffffffff1673ffffffffffffffffffffffffffffffffffffffff16815260200190815260200160002060008473ffffffffffffffffffffffffffffffffffffffff1673ffffffffffffffffffffffffffffffffffffffff16815260200190815260200160002060006101000a81548160ff0219169083151502179055508173ffffffffffffffffffffffffffffffffffffffff168373ffffffffffffffffffffffffffffffffffffffff167f17307eab39ab6107e8899845ad3d59bd9653f200f220920489ca2b5937696c31836040516110ff9190611a03565b60405180910390a3505050565b60008373ffffffffffffffffffffffffffffffffffffffff163b11156112b6578273ffffffffffffffffffffffffffffffffffffffff1663150b7a02868685856040518563ffffffff1660e01b815260040161116b9493929190612055565b6020604051808303816000875af19250505080156111a757506040513d601f19601f820116820180604052508101906111a491906120b6565b60015b61122b573d80600081146111d7576040519150601f19603f3d011682016040523d82523d6000602084013e6111dc565b606091505b50600081510361122357836040517f64a0ae9200000000000000000000000000000000000000000000000000000000815260040161121a9190611b74565b60405180910390fd5b805160208201fd5b63150b7a0260e01b7bffffffffffffffffffffffffffffffffffffffffffffffffffffffff1916817bffffffffffffffffffffffffffffffffffffffffffffffffffffffff1916146112b457836040517f64a0ae920000000000000000000000000000000000000000000000000000000081526004016112ab9190611b74565b60405180910390fd5b505b5050505050565b606060405180602001604052806000815250905090565b60606112df82610ca4565b5060006112ea6112bd565b9050600081511161130a5760405180602001604052806000815250611335565b806113148461166d565b604051602001611325929190611fdc565b6040516020818303038152906040525b915050919050565b60007f01ffc9a7000000000000000000000000000000000000000000000000000000007bffffffffffffffffffffffffffffffffffffffffffffffffffffffff1916827bffffffffffffffffffffffffffffffffffffffffffffffffffffffff1916149050919050565b60006002600083815260200190815260200160002060009054906101000a900473ffffffffffffffffffffffffffffffffffffffff169050919050565b808061141d5750600073ffffffffffffffffffffffffffffffffffffffff168273ffffffffffffffffffffffffffffffffffffffff1614155b1561155157600061142d84610ca4565b9050600073ffffffffffffffffffffffffffffffffffffffff168373ffffffffffffffffffffffffffffffffffffffff161415801561149857508273ffffffffffffffffffffffffffffffffffffffff168173ffffffffffffffffffffffffffffffffffffffff1614155b80156114ab57506114a98184610b2e565b155b156114ed57826040517fa9fbf51f0000000000000000000000000000000000000000000000000000000081526004016114e49190611b74565b60405180910390fd5b811561154f57838573ffffffffffffffffffffffffffffffffffffffff168273ffffffffffffffffffffffffffffffffffffffff167f8c5be1e5ebec7d5bd14f71427d1e84f3dd0314c0f7b2291e5b200ac8c7c3b92560405160405180910390a45b505b836004600085815260200190815260200160002060006101000a81548173ffffffffffffffffffffffffffffffffffffffff021916908373ffffffffffffffffffffffffffffffffffffffff16021790555050505050565b6115b483838361173b565b61166857600073ffffffffffffffffffffffffffffffffffffffff168373ffffffffffffffffffffffffffffffffffffffff160361162957806040517f7e2732890000000000000000000000000000000000000000000000000000000081526004016116209190611c0a565b60405180910390fd5b81816040517f177e802f00000000000000000000000000000000000000000000000000000000815260040161165f9291906120e3565b60405180910390fd5b505050565b60606000600161167c846117fc565b01905060008167ffffffffffffffff81111561169b5761169a611d1b565b5b6040519080825280601f01601f1916602001820160405280156116cd5781602001600182028036833780820191505090505b509050600082602083010190505b600115611730578080600190039150507f3031323334353637383961626364656600000000000000000000000000000000600a86061a8153600a85816117245761172361210c565b5b049450600085036116db575b819350505050919050565b60008073ffffffffffffffffffffffffffffffffffffffff168373ffffffffffffffffffffffffffffffffffffffff16141580156117f357508273ffffffffffffffffffffffffffffffffffffffff168473ffffffffffffffffffffffffffffffffffffffff1614806117b457506117b38484610b2e565b5b806117f257508273ffffffffffffffffffffffffffffffffffffffff166117da83610d2c565b73ffffffffffffffffffffffffffffffffffffffff16145b5b90509392505050565b600080600090507a184f03e93ff9f4daa797ed6e38ed64bf6a1f010000000000000000831061185a577a184f03e93ff9f4daa797ed6e38ed64bf6a1f01000000000000000083816118505761184f61210c565b5b0492506040810190505b6d04ee2d6d415b85acef81000000008310611897576d04ee2d6d415b85acef8100000000838161188d5761188c61210c565b5b0492506020810190505b662386f26fc1000083106118c657662386f26fc1000083816118bc576118bb61210c565b5b0492506010810190505b6305f5e10083106118ef576305f5e10083816118e5576118e461210c565b5b0492506008810190505b612710831061191457612710838161190a5761190961210c565b5b0492506004810190505b60648310611937576064838161192d5761192c61210c565b5b0492506002810190505b600a8310611946576001810190505b80915050919050565b6000604051905090565b600080fd5b600080fd5b60007fffffffff0000000000000000000000000000000000000000000000000000000082169050919050565b61199881611963565b81146119a357600080fd5b50565b6000813590506119b58161198f565b92915050565b6000602082840312156119d1576119d0611959565b5b60006119df848285016119a6565b91505092915050565b60008115159050919050565b6119fd816119e8565b82525050565b6000602082019050611a1860008301846119f4565b92915050565b600081519050919050565b600082825260208201905092915050565b60005b83811015611a58578082015181840152602081019050611a3d565b60008484015250505050565b6000601f19601f8301169050919050565b6000611a8082611a1e565b611a8a8185611a29565b9350611a9a818560208601611a3a565b611aa381611a64565b840191505092915050565b60006020820190508181036000830152611ac88184611a75565b905092915050565b6000819050919050565b611ae381611ad0565b8114611aee57600080fd5b50565b600081359050611b0081611ada565b92915050565b600060208284031215611b1c57611b1b611959565b5b6000611b2a84828501611af1565b91505092915050565b600073ffffffffffffffffffffffffffffffffffffffff82169050919050565b6000611b5e82611b33565b9050919050565b611b6e81611b53565b82525050565b6000602082019050611b896000830184611b65565b92915050565b611b9881611b53565b8114611ba357600080fd5b50565b600081359050611bb581611b8f565b92915050565b60008060408385031215611bd257611bd1611959565b5b6000611be085828601611ba6565b9250506020611bf185828601611af1565b9150509250929050565b611c0481611ad0565b82525050565b6000602082019050611c1f6000830184611bfb565b92915050565b600080600060608486031215611c3e57611c3d611959565b5b6000611c4c86828701611ba6565b9350506020611c5d86828701611ba6565b9250506040611c6e86828701611af1565b9150509250925092565b600060208284031215611c8e57611c8d611959565b5b6000611c9c84828501611ba6565b91505092915050565b611cae816119e8565b8114611cb957600080fd5b50565b600081359050611ccb81611ca5565b92915050565b60008060408385031215611ce857611ce7611959565b5b6000611cf685828601611ba6565b9250506020611d0785828601611cbc565b9150509250929050565b600080fd5b600080fd5b7f4e487b7100000000000000000000000000000000000000000000000000000000600052604160045260246000fd5b611d5382611a64565b810181811067ffffffffffffffff82111715611d7257611d71611d1b565b5b80604052505050565b6000611d8561194f565b9050611d918282611d4a565b919050565b600067ffffffffffffffff821115611db157611db0611d1b565b5b611dba82611a64565b9050602081019050919050565b82818337600083830152505050565b6000611de9611de484611d96565b611d7b565b905082815260208101848484011115611e0557611e04611d16565b5b611e10848285611dc7565b509392505050565b600082601f830112611e2d57611e2c611d11565b5b8135611e3d848260208601611dd6565b91505092915050565b60008060008060808587031215611e6057611e5f611959565b5b6000611e6e87828801611ba6565b9450506020611e7f87828801611ba6565b9350506040611e9087828801611af1565b925050606085013567ffffffffffffffff811115611eb157611eb061195e565b5b611ebd87828801611e18565b91505092959194509250565b60008060408385031215611ee057611edf611959565b5b6000611eee85828601611ba6565b9250506020611eff85828601611ba6565b9150509250929050565b7f4e487b7100000000000000000000000000000000000000000000000000000000600052602260045260246000fd5b60006002820490506001821680611f5057607f821691505b602082108103611f6357611f62611f09565b5b50919050565b6000606082019050611f7e6000830186611b65565b611f8b6020830185611bfb565b611f986040830184611b65565b949350505050565b600081905092915050565b6000611fb682611a1e565b611fc08185611fa0565b9350611fd0818560208601611a3a565b80840191505092915050565b6000611fe88285611fab565b9150611ff48284611fab565b91508190509392505050565b600081519050919050565b600082825260208201905092915050565b600061202782612000565b612031818561200b565b9350612041818560208601611a3a565b61204a81611a64565b840191505092915050565b600060808201905061206a6000830187611b65565b6120776020830186611b65565b6120846040830185611bfb565b8181036060830152612096818461201c565b905095945050505050565b6000815190506120b08161198f565b92915050565b6000602082840312156120cc576120cb611959565b5b60006120da848285016120a1565b91505092915050565b60006040820190506120f86000830185611b65565b6121056020830184611bfb565b9392505050565b7f4e487b7100000000000000000000000000000000000000000000000000000000600052601260045260246000fdfea2646970667358221220100007d53ebeda445a09d33bc98806d91139a57775c8b9ea0a32f650984df92f64736f6c63430008140033a2646970667358221220a557f32d7b04061dcba652cc0af08cfa4dc1ed721472c5ec0c677ff4778466b364736f6c63430008140033",
  "linkReferences": {},
  "deployedLinkReferences": {}
}